:020000040800F2
:100000000090002081790008E90C0008EB0C000842
:1000100000000000000000000000000000000000E0
:10002000000000000000000000000000ED0C0008CF
:100030000000000000000000EF0C0008F10C0008B8
:10004000D1790008D1790008D1790008F90C0008AD
:10005000010D0008D1790008D1790008030D0008CE
:10006000D1790008150D0008D1790008D179000870
:10007000D1790008D1790008D1790008D179000838
:10008000D1790008250D0008D1790008D179000840
:10009000D1790008D1790008D1790008D179000818
:1000A000D1790008D1790008950D0008D1790008B0
:0C00B000A50D0008D1790008D1790008E6
:1000BC0010B5064C2378002B07D1054B002B02D032
:1000CC00044800E000BF0123237010BD7000002025
:1000DC000000000094820008044B10B5002B03D0E4
:1000EC000349044800E000BF10BDC04600000000FA
:1000FC00740000209482000802780B78002A03D048
:10010C00013001319A42F7D0D01A704703B47146CE
:10011C00490840004900095E49008E4403BC704701
:10012C00002243088B4274D303098B425FD3030A2A
:10013C008B4244D3030B8B4228D3030C8B420DD33D
:10014C00FF22090212BA030C8B4202D312120902CB
:10015C0065D0030B8B4219D300E0090AC30B8B4209
:10016C0001D3CB03C01A5241830B8B4201D38B03B7
:10017C00C01A5241430B8B4201D34B03C01A52415C
:10018C00030B8B4201D30B03C01A5241C30A8B429F
:10019C0001D3CB02C01A5241830A8B4201D38B028A
:1001AC00C01A5241430A8B4201D34B02C01A52412E
:1001BC00030A8B4201D30B02C01A5241CDD2C309A0
:1001CC008B4201D3CB01C01A524183098B4201D31C
:1001DC008B01C01A524143098B4201D34B01C01A07
:1001EC00524103098B4201D30B01C01A5241C3087F
:1001FC008B4201D3CB00C01A524183088B4201D3EE
:10020C008B00C01A524143088B4201D34B00C01AD9
:10021C005241411A00D20146524110467047FFE745
:10022C0001B5002000F0F0F802BDC0460029F7D05F
:10023C0076E7704703460B437FD4002243088B427A
:10024C0074D303098B425FD3030A8B4244D3030B51
:10025C008B4228D3030C8B420DD3FF22090212BA16
:10026C00030C8B4202D31212090265D0030B8B4292
:10027C0019D300E0090AC30B8B4201D3CB03C01A7C
:10028C005241830B8B4201D38B03C01A5241430B57
:10029C008B4201D34B03C01A5241030B8B4201D347
:1002AC000B03C01A5241C30A8B4201D3CB02C01AB2
:1002BC005241830A8B4201D38B02C01A5241430A2A
:1002CC008B4201D34B02C01A5241030A8B4201D319
:1002DC000B02C01A5241CDD2C3098B4201D3CB01C0
:1002EC00C01A524183098B4201D38B01C01A52416F
:1002FC0043098B4201D34B01C01A524103098B4273
:10030C0001D30B01C01A5241C3088B4201D3CB005D
:10031C00C01A524183088B4201D38B00C01A524140
:10032C0043088B4201D34B00C01A5241411A00D2F0
:10033C0001465241104670475DE0CA0F00D0494259
:10034C00031000D34042534000229C4603098B42C9
:10035C002DD3030A8B4212D3FC22890112BA030A51
:10036C008B420CD3890192118B4208D389019211D3
:10037C008B4204D389013AD0921100E08909C30958
:10038C008B4201D3CB01C01A524183098B4201D35A
:10039C008B01C01A524143098B4201D34B01C01A45
:1003AC00524103098B4201D30B01C01A5241C308BD
:1003BC008B4201D3CB00C01A524183088B4201D32C
:1003CC008B00C01A5241D9D243088B4201D34B0047
:1003DC00C01A5241411A00D20146634652415B1089
:1003EC00104601D34042002B00D54942704763466A
:1003FC005B1000D3404201B5002000F005F802BDAF
:10040C000029F8D016E770477047C046002B15D16D
:10041C00002A13D1002906DB01DC002806D00020BD
:10042C00C043410802E080210906002007B40248BD
:10043C0001A14018029003BDD1FFFFFF03B4684631
:10044C0001B5029800F01AF9019B9E4602B00CBC53
:10045C007047C046002B11D1002A0FD1002900D1C2
:10046C00002802D00021C943081C07B4024802A18D
:10047C004018029003BDC04691FFFFFF03B46846CD
:10048C0001B5029800F02EF8019B9E4602B00CBC00
:10049C007047C046F0B515042D0C0F0001002E005E
:1004AC00C64684460004140C000C090C46434D430C
:1004BC00604361434019340C241800B5A54203D99C
:1004CC008020400280464144250C6D1861465943FA
:1004DC007A43300449192404000C2018891804BCF0
:1004EC009046F0BDF0B557464E464546DE46E0B563
:1004FC0004000D009246994683B08B4230D82DD023
:10050C004946504600F0D8F829000600200000F0BB
:10051C00D3F8331A9846203B9B4633D45A4653465D
:10052C00934042461F00534693401E00AF423AD8B8
:10053C00AF4200D178E05B46A41BBD41002B00DA32
:10054C0075E0002200230092019301235A46934048
:10055C000193012342469340009328E08242CFD975
:10056C0000220023009201930C9B002B01D01C60F5
:10057C005D600098019903B03CBC90469946A24638
:10058C00AB46F0BD424620239B1A5246DA40414608
:10059C0013004A468A40170042461F435346934075
:1005AC001E00AF42C4D9002200230092019343469F
:1005BC00002BD9D0FB0772081A4346467B080EE085
:1005CC00AB4201D1A2420CD8A41A9D41012024199E
:1005DC006D410021013E24184D41002E06D0AB4246
:1005EC00EED9013E24196D41002EF8D100980199E5
:1005FC005B4600196941002B24DB2B005A4644460C
:10060C00D3402A00E2401C005B461500002B2ADB7D
:10061C0026009E40330026004746BE403200801A1A
:10062C009941009001919FE7A342BCD883E74246D1
:10063C00202300219B1A0022009101920122DA4012
:10064C00019286E7424620239B1A2A0046469A408E
:10065C002300F340444613432A00E2401C005B464F
:10066C001500002BD4DA42462F0020232600974099
:10067C009B1ADE403B003343CDE7C046F8B5CE466F
:10068C00474680B59146984604000D0000F020F8CE
:10069C0007000E0002000B0048464146FFF7FAFE29
:1006AC00241A8D41089B380031001C605D600CBC25
:1006BC0090469946F8BDC04610B5002903D100F00C
:1006CC00EDF8203002E0081C00F0E8F810BDC04640
:1006DC00F0B557464E464546DE46E0B50F001900CC
:1006EC00002306009846100083B0002F07DA330071
:1006FC003C0000275E42A74101235B42984600293B
:10070C0007DA4346DB430C009846030000215842AD
:10071C00A14134003D0082468946B9426AD867D06F
:10072C0049465046FFF7C8FF834639003000FFF7B3
:10073C00C3FF5B461B1A9C46203B9B466BD458461A
:10074C005146814060460B00514681400A00BB4235
:10075C0000D972E0BB4200D179E034003D0059462B
:10076C00A41A9D41002900DA74E000210020012622
:10077C000090019159468E400196614601268E40AB
:10078C006146009600295FD0D90756080E435F08D2
:10079C006146012200230CE0AF4201D1A6420AD8E7
:1007AC00A41BBD4124196D410139A4185D410029D8
:1007BC0006D0AF42F0D9013924196D410029F8D186
:1007CC00009801995B4600196941002B4DDB2E0006
:1007DC002C00DE406346DC405B46002B55DB3400CE
:1007EC009C4023006446A6403200801A994103E0E5
:1007FC00B04295D9002000214346002B04D00300C1
:10080C000C0000215842A14103B03CBC90469946D3
:10081C00A246AB46F0BD6246484620235146904066
:10082C009B1AD94003000091009960460B43514636
:10083C0081400A00BB4200D88CE7002100200090C8
:10084C000191614600299FD100980199D4E7B142EA
:10085C00F3D882E7614620260127761A0020002172
:10086C00F74000900191019787E7624620239B1A7D
:10087C002A009A40260013006246D6402C001E43E4
:10088C006346DC405B46002BA9DA62462023350028
:10089C0094409B1ADD4023002B43A3E71C2101232A
:1008AC001B04984201D3000C10391B0A984201D347
:1008BC00000A08391B09984201D30009043902A225
:1008CC00105C40187047C04604030202010101018C
:1008DC00000000000000000010B50024092C09DC09
:1008EC00A0200121C00500F0E5FB642002F048F8CF
:1008FC000134F3E7A02000220121C00500F0D4FB55
:10090C0010BD000000B5A1B03822002112A807F0DC
:10091C0088F8102200210EA807F083F83422002159
:10092C0001A807F07EF88020800001F037FF0A2331
:10093C001293F633159300231693402217923F3AE5
:10094C001892013219921A921B9308331C9380232C
:10095C009B021D9380239B041E9380239B051F9356
:10096C0012A800F0F1FF00281BD107230E93053BC2
:10097C000F9300231093119302210EA801F0A0FAFB
:10098C00002811D10B4B0193002303938022D20238
:10099C0007920B9301A801F073FB002807D121B03B
:1009AC0000BDFFF799FFE0E7FFF796FFEAE7FFF7D7
:1009BC0093FFF4E702022000F0B59BB001F0BAFF00
:1009CC00FFF7A0FF00F0ECF806F0FAFE01F0F2FFE2
:1009DC0002F02EF805F0ACFE05F080FE06F048FFA4
:1009EC00614C200002F004F8FA21200004F0A4FB72
:1009FC005E4805F0C5FE5E4805F0C2FE01AC602203
:100A0C00002102A807F00DF85A4B220003CB03C2B9
:100A1C00198811809B789370FA26B600564D3300D6
:100A2C000A222100280005F0BDFC6022002102A84A
:100A3C0006F0F7FF514B220083CB83C283CB83C2DA
:100A4C001B881380330019222100280005F0AAFC12
:100A5C004B4C200006F0CCFE0021200000F0ACFE38
:100A6C0006F070F80D2006F035F8464C40222100B7
:100A7C00280004F017FC06F0A3F8002001F02EFF6C
:100A8C0000220121072001F0B3FE002202210920DF
:100A9C0001F0AEFE00220221112001F0A9FE00227D
:100AAC0002211A2001F0A4FE002202211C2001F0D8
:100ABC009FFE354806F0A4F8344806F0A1F83448F7
:100ACC0006F09EF8334806F09BF805F0BBFF04F0E7
:100ADC0001F903F043FD03F0A3FE03F087FE03F0DE
:100AEC00E7FF0C3C0A23A372093BE37200241EE0CF
:100AFC00294B00221A7201AD6032002102A806F0C7
:100B0C0090FF1C4B2A0003CB03C2198811809B78E1
:100B1C009370FA239B000A222900174805F042FC27
:100B2C0002F0B2F81C4A4D23D35C002B0CD11A4BAB
:100B3C009B7A002BF6D0184B1B7A002BD8D1164B76
:100B4C00DB7A002BEED1D3E7013403F0A7FC2307AB
:100B5C00EDD1114A114BD35C002BE8D003F0C4FF4C
:100B6C0004F0D4F8E3E7C04608060020280700206C
:100B7C008C0700203C8300089C060020488300085A
:100B8C00F00700209C000020FFFF1200FFFF130065
:100B9C00FFFF1100FFFF100090000020D1040000A7
:100BAC00F0B5D6464F464646C0B58AB01422002151
:100BBC0005A806F036FF424B5A6B042422435A63B5
:100BCC005A6B22400192019A596B202211435963AE
:100BDC00596B0A400292029A5A6B012632435A63AD
:100BEC005A6B32400392039A596B02221143596398
:100BFC005B6B1A400492049B324B9946A025ED0581
:100C0C0000221900280000F04FFA2F4B9A460022C0
:100C1C000321180000F048FA2C4B98460022402182
:100C2C00180000F041FA0594032706970024079456
:100C3C0005A9274800F0ECF84B4605930696079457
:100C4C00089405A9280000F0E3F8224B05930697B9
:100C5C00079405A9280000F0DBF84023994605937A
:100C6C000694079405A9280000F0D2F8059706967B
:100C7C000794089405A9504600F0CAF84B46059312
:100C8C0006960794089405A9404600F0C1F8802305
:100C9C001B010593104B0693079405A9280000F03F
:100CAC00B7F800220321072001F0A2FD072001F074
:100CBC00CFFD0AB01CBC90469946A246F0BDC0467A
:100CCC0000100240A38000000004005000080050F7
:100CDC000014005010700000000011107047FEE767
:100CEC007047704710B501F039FE10BD10B501F01A
:100CFC00EDFA10BD704710B5402000F0E3F98020EC
:100D0C00000100F0DFF910BD10B5024801F0DEFC67
:100D1C0010BDC0464006002070B5194B01200021C3
:100D2C001C685D68001969411860596001221A72CB
:100D3C00A922D2009B58002B15D0A0200122022101
:100D4C00C00500F0B1F90E4AA923DB00D358002BE3
:100D5C000FD0A02001222021C00500F0A5F90948E0
:100D6C0004F01FFA70BDA0200221C00500F0A2F90A
:100D7C00E9E7A0202021C00500F09CF9EFE7C04670
:100D8C00900000200806002010B5024806F07CFCFC
:100D9C0010BDC0462807002010B5044C200004F0FC
:100DAC0097FB200001F05CFF10BDC0469C060020A4
:100DBC0010B5402800D010BD05F044FEFBE7000044
:100DCC0000B583B0114B196C012211431964196CD5
:100DDC000A400092009ADA6B802149050A43DA63D3
:100DEC00DB6B0B400193019B00220021032001F0DF
:100DFC00FFFC032001F02CFD00220021042001F057
:100E0C00F7FC042001F024FD03B000BD00100240EB
:100E1C00F0B5D6464F464646C0B500233BE0032608
:100E2C0000E00026A64034003C435A4E1832920093
:100E3C0094518022B4584A46D24326004D46AE43C4
:100E4C004D68ED0302D54D462C432600514C8027AE
:100E5C00E6518426A459260016404D68AD0302D5F0
:100E6C004D462C4326004B4C8427E6512468260023
:100E7C0016404D68ED0202D54D462C432600454CDC
:100E8C002660646822404D68AD0201D54A46224373
:100E9C00404C626001330C682200DA4075D00122AC
:100EAC009A4025001540A9461442F3D04C68022CF8
:100EBC0001D0122C0ED1DC080834A40027580726C8
:100ECC001E40B6000F25B540AF430D69B5402E004E
:100EDC003E4326500468A4465E000324A246270025
:100EEC00B740B846FF4365464446A543AC464C68FC
:100EFC00554625402C00B44065462C4304604C6894
:100F0C00651E012D03D9112C01D0122C13D184682C
:100F1C003C40A446CC68B44065462C43846044688D
:100F2C00944322004C682409A446012465462C40B5
:100F3C009C4014434460C26817408A68B2403A43EC
:100F4C00C2604A68D200A5D59A0814001834A400CF
:100F5C00104EA75903241C40E4000F26A640B743AB
:100F6C00A026F605B04200D15BE70B4EB04208D08C
:100F7C000A4EB04207D00A4EB04200D14FE70526C8
:100F8C0050E701264EE702264CE71CBC90469946DA
:100F9C00A246F0BD001802400004005000080050AA
:100FAC00000C0050F0B5CE46474680B5894600236C
:100FBC0023E00321884601E0002188464146A140F8
:100FCC00A94247D004685E000325B5402C43046059
:100FDC00DC080834A400275807261E40B6000F2151
:100FEC00B1408F4327508468AC4384604468944379
:100FFC004460C268AA43C26001334A46DA4046D014
:10100C0001229A404C461440A44649461142F3D062
:10101C009F083C001834A4001F4D655903241C4044
:10102C00E4000F26A6403540A021C9058842C3D054
:10103C001A49884208D01A49884208D0194988426E
:10104C00B7D005218846B9E701218846B6E70221C9
:10105C008846B3E7104D802188466C5861468C4316
:10106C0041466C50043188466C5861468C4341466D
:10107C006C502C6861468C432C606C688C436C60A3
:10108C003C001834A4006759B74367519AE70CBC6D
:10109C0090469946F0BDC04600180240000400502E
:1010AC0000080050000C0050002A01D081617047EC
:1010BC008162FCE74369194201D08162704781610A
:1010CC00FCE7704710B50400094BDB68184204D1EB
:1010DC00074B1B69234205D110BD054BD860FFF7A8
:1010EC00F0FFF5E7024B1C612000FFF761FEF3E710
:1010FC000018024030B5036A012293430362036A6D
:10110C0042688469184D2C400D682C430225AB4372
:10111C008D682B43154DA84208D0154DA84205D01B
:10112C00144DA84202D0144DA84205D10825AB435A
:10113C00CD682B430425AB430C4DA84208D00C4D75
:10114C00A84205D00B4DA84202D00B4DA84205D1A8
:10115C000A4D2A404D692A438D692A4342608461B5
:10116C004A684263036230BD8CFFFEFF002C0140D5
:10117C00004001400044014000480140FFFCFFFFDB
:10118C0070B5036A194A13400362036A4268C46962
:10119C00174D2C400E682643164C23408C682402B5
:1011AC002343154CA04219D0134CA04208D0134C29
:1011BC00A04205D0124CA04202D0124CA04207D142
:1011CC00114C14404A69120122438C6925012A43AF
:1011DC004260C6614A68C263036270BD0B4C1C401E
:1011EC00CB681B0223430A4C2340DDE7FFFEFFFFC5
:1011FC008CFFFEFFFFFDFFFF002C01400040014073
:10120C000044014000480140FFCFFFFFFFF7FFFF04
:10121C00FFFBFFFF30B5036A134A13400362026AF7
:10122C004368C469114D2C400D682D022C43104DA0
:10123C0015408A6812032A430E4DA84208D00E4D61
:10124C00A84205D00D4DA84202D00D4DA84204D1A4
:10125C000C4D2B404D69AD012B434360C4614B6871
:10126C000364026230BDC046FFEFFFFFFF8CFFFE40
:10127C00FFDFFFFF002C0140004001400044014013
:10128C0000480140FFBFFFFF30B5036A124A13400C
:10129C000362026A4368446D104D2C400D682C4368
:1012AC000F4D15408A6812042A430E4DA84208D0EF
:1012BC000D4DA84205D00D4DA84202D00C4DA842B0
:1012CC0004D1054D2B404D692D022B4343604465E1
:1012DC004B688365026230BDFFFFFEFF8FFFFEFF90
:1012EC00FFFFFDFF002C0140004001400044014085
:1012FC000048014030B5036A134A13400362026A86
:10130C004368446D114D2C400D682D022C43104D3B
:10131C0015408A6812052A430E4DA84208D00E4D7E
:10132C00A84205D00D4DA84202D00D4DA84204D1C3
:10133C000C4D2B404D69AD022B43436044654B680B
:10134C00C365026230BDC046FFFFEFFFFF8FFFFE9B
:10135C00FFFFDFFF002C0140004001400044014032
:10136C0000480140FFFFFBFF30B5036A046A01250A
:10137C00AC4304628469EF35AC43120122430A2466
:10138C00A3430B438261036230BD000030B5036A96
:10139C001024A34303628469036A054D2C40120395
:1013AC002243A024A343090119438261016230BD89
:1013BC00FF0FFFFF8368034A13400B4307210B43C6
:1013CC00836070478FFFCFFF704700000368214A8E
:1013DC00904206D08022D205904202D01E4A904202
:1013EC0003D1702293434A6813431A4A904212D095
:1013FC008022D20590420ED0174A90420BD0174A49
:10140C00904208D0164A904205D0164A904202D01B
:10141C00154A904203D1154A1340CA6813438022DF
:10142C0093434A69134303608B68C3620B688362FE
:10143C00084B984208D00A4B984205D0094B984269
:10144C0002D0094B984201D10B690363012343611C
:10145C007047C046002C01400004004000200040B2
:10146C00004001400044014000480140FFFCFFFFE8
:10147C0070B5041E14D03D23C35C002B0AD03D254F
:10148C0002236355210001C9FFF7A0FF0123635517
:10149C00002070BD3C330022C25406F0A9F9EEE7DF
:1014AC000120F6E770B5041E14D03D23C35C002B5D
:1014BC000AD03D2502236355210001C9FFF786FFA1
:1014CC0001236355002070BD3C330022C254FFF74A
:1014DC007BFFEEE70120F6E770B5036A1022934319
:1014EC000362036A42688469174D2C400D682D0213
:1014FC0025432024A3438C6824012343134CA0428E
:10150C0019D0124CA04208D0114CA04205D0114C5D
:10151C00A04202D0104CA04207D1104C14404A6992
:10152C00920022438C69A6003243426085614A686E
:10153C008263036270BD8024A3431C00CB681B0133
:10154C0023434024A343DCE7FF8CFFFE002C014027
:10155C00004001400044014000480140FFF3FFFF00
:10156C0070B504000D003C23C35C012B00D190E04E
:10157C003C230121C15401330131C154142A16D822
:10158C009200454B9B589F4629000068FFF7B2FD1F
:10159C002268936908210B4393612268936904398B
:1015AC008B4393612268936929690B4393613D23B3
:1015BC000122E254013B0022E254002070BD2900BC
:1015CC000068FFF789FF2268916980231B010B4398
:1015DC0093612268936931490B40936121688B694F
:1015EC002A69120213438B61E1E729000068FFF7B7
:1015FC00C7FD2268D36908210B43D3612268D369E4
:10160C0004398B43D3612268D36929690B43D361B5
:10161C00CDE729000068FFF7FDFD2268D169802322
:10162C001B010B43D3612268D3691C490B40D36166
:10163C002168CB692A6912021343CB61B7E72900F1
:10164C000068FFF721FE2268536D08210B43536598
:10165C002268536D04398B4353652268536D296995
:10166C000B435365A3E729000068FFF743FE22688C
:10167C00516D80231B010B4353652268536D074941
:10168C000B40536521684B6D2A69120213434B655D
:10169C008DE7022092E7C04664830008FFFBFFFF42
:1016AC0030B58468034D2C401B0213430B4323437A
:1016BC00836030BDFF00FFFF10B504003C23C35C0A
:1016CC00012B66D03C230122C25401330132C25497
:1016DC00026893683048034093600B68602B44D0D9
:1016EC0024D8402B4BD00BD9502B0ED1CA6849684B
:1016FC002068FFF739FE50212068FFF75BFE04E0FD
:10170C00202B0ED009D9302B0BD03D230122E254D3
:10171C00013B0022E254002010BD002B01D0102B05
:10172C00F3D119002068FFF745FEEEE7702B10D0BF
:10173C00802292019342E8D1CB684A68896820687C
:10174C00FFF7AEFF226891688023DB010B439360A7
:10175C00DBE7CB684A6889682068FFF7A1FF22683D
:10176C00936877210B439360CFE7CA684968206878
:10177C00FFF70CFE60212068FFF71CFEC5E7CA6866
:10178C0049682068FFF7F0FD40212068FFF712FE42
:10179C00BBE70220C0E7C0468800CEFF10B51F2370
:1017AC00194001248C40036AA3430362036A8A40F4
:1017BC001343036210BD000010B504000122006841
:1017CC00FFF7ECFF2368104A934208D00F4A93426C
:1017DC0005D00F4A934202D00E4A934204D1596C61
:1017EC00802212020A435A64226893680A490B4009
:1017FC00062B06D007398B4203D0136801210B430B
:10180C001360002010BDC046002C01400040014078
:10181C0000440140004801400700010030B53C2362
:10182C00C35C012B23D03C230122C254013301326F
:10183C00C2540268536894680E4DAA4212D07025A7
:10184C00AB430D682B438025AC438968214353601F
:10185C00036899603D230122C254013B0022C2540B
:10186C00002030BD044D2B404D682B43E7E7022090
:10187C00F7E7C046002C0140FFFF0FFF10B53C23DB
:10188C00C35C012B44D03C230122C254214BCA68B7
:10189C0013408A681343204A13404A6813431F4A73
:1018AC0013400A6813431E4A13400A6913431D4A26
:1018BC0013404A6913431C4A13400A6B13431B4AD7
:1018CC0013408A69120413430268194CA24208D0CF
:1018DC00174CA2420AD053643C230022C25400206D
:1018EC0010BD144C2340CC692343F1E7124C234028
:1018FC008C6A24052343114C23400C6A2343104C5F
:10190C0023404C6A23430F4C2340C96A0B43E2E744
:10191C000220E5E7FFFCFFFFFFFBFFFFFFF7FFFFE8
:10192C00FFEFFFFFFFDFFFFFFFBFFFFFFFFFF0FF3A
:10193C00002C0140FFFFFFEFFFFF0FFFFFFFFFFE3B
:10194C00FFFFFFFDFFFFFFDF70B582B0041E00D16B
:10195C0034E20368DB0739D5C14A916838230B4060
:10196C00D16803220A40102B26D0082B26D063689E
:10197C008022520293427FD0A022D202934200D105
:10198C0081E0B74B1A68B7490A401A601A68B64921
:10199C000A401A606368002B00D180E000F0EAFF77
:1019AC000500AF4B1B689B0310D400F0E3FF401BFA
:1019BC006428F6D9032002E2032AD6D1A84B1B686F
:1019CC009B0303D56368002B00D1FAE123689B07C6
:1019DC0031D5A34A936838210B40D16803220A40C1
:1019EC00102B6AD0002B6BD19D4A1268520503D57F
:1019FC00E268002A00D1E6E1994842689B490A4016
:101A0C00616909020A434260002B0DD103689849B1
:101A1C000B4021690B4303600368DB0A07221A4061
:101A2C00944BD340944A1360944B186800F056FFC3
:101A3C00002800D0C9E123681B0700D481E0884B43
:101A4C009A6838231340182B73D0A369002B00D14C
:101A5C00B4E0834A136E01210B43136600F08AFF36
:101A6C0005007F4B1B6E9B076BD400F083FF401B64
:101A7C000228F6D90320A2E1794A116880235B027F
:101A8C000B43136086E7764B19688022D2020A4317
:101A9C001A601968802252020A431A607AE700F031
:101AAC0069FF05006E4B1B689B038FD500F062FF2E
:101ABC00401B6428F6D9032081E1022A92D193E7D6
:101ACC00E368002B22D0664A136869490B402169F0
:101ADC000B431360116880235B000B43136000F011
:101AEC0049FF05005E4B1B685B0506D400F042FF06
:101AFC00401B0228F6D9032061E159494B685B4A27
:101B0C0013406269120213434B6094E7544A136802
:101B1C005B490B40136000F02DFF0500504B1B6818
:101B2C005B0588D500F026FF401B0228F6D9032060
:101B3C0045E14B4B1B6E9B0703D5A369002B00D1D2
:101B4C0045E123685B0700D4A2E0454B9A68382333
:101B5C001340202B45D0424BDB6BDB004AD4404A70
:101B6C00D16B802040050143D163D36B03400193BB
:101B7C00019B0125434B1B68DB053DD5A368012B5D
:101B8C004ED0052B52D0364BDA6D01218A43DA65E3
:101B9C00DA6D03318A43DA65A368002B50D000F06C
:101BAC00E9FE06002E4BDB6D9B076FD400F0E2FEC6
:101BBC00801B354B9842F5D9032000E1284A136E5F
:101BCC0001218B43136600F0D5FE0500244B1B6EE0
:101BDC009B07B6D500F0CEFE401B0228F6D9032099
:101BEC00EDE01F4BDB6D9B0752D5A368002B4FD14B
:101BFC000120E4E00025BDE7224A116880235B0048
:101C0C000B43136000F0B6FE06001E4B1B68DB0591
:101C1C00B4D400F0AFFE801B0228F6D90320CEE02E
:101C2C000F4AD36D01210B43D365B5E70C4BDA6D2D
:101C3C0004210A43DA65DA6D03390A43DA65ABE746
:101C4C0000F098FE0600064BDB6D9B071ED500F0DE
:101C5C0091FE801B0C4B9842F5D90320AFE0C04697
:101C6C0000100240FFFFFEFFFFFFFBFFFF80FFFFA6
:101C7C00FFC7FFFF0024F400080000200400002030
:101C8C00FFFEFFFF0070004010270000012D26D042
:101C9C00E369002B00D19CE0564A916838220A4037
:101CAC00102A63D0022B20D0524B1A6852490A409A
:101CBC001A60DA6803218A43DA60DA684F490A400D
:101CCC00DA6000F057FE04004A4B1B689B014BD5B1
:101CDC0000F050FE001B0228F6D903206FE0454AA5
:101CEC00D36B47490B40D363D2E7424A136842494E
:101CFC000B40136000F03EFE05003E4B1B689B0141
:101D0C0006D500F037FE401B0228F6D9032056E01A
:101D1C00384AD3683B491940236A606A0343A06A76
:101D2C0000020343E06A0343206B0343606B0343ED
:101D3C000B43D360116880235B040B431360D168A1
:101D4C0080235B050B43D36000F014FE0400294B89
:101D5C001B689B0106D400F00DFE001B0228F6D96F
:101D6C0003202CE000202AE0002028E0012B32D0B8
:101D7C00204BDA6803231340216A8B422DD1702348
:101D8C001340616A8B422AD1FE21C9011140A36A1A
:101D9C001B02994225D1F8239B031340E16A8B4225
:101DAC0021D1E0231B051340216B8B421DD1520F17
:101DBC005207636B9A421AD1002000E0012002B056
:101DCC0070BD0120FBE70120F9E70120F7E70120B6
:101DDC00F5E70020F3E70120F1E70120EFE7012010
:101DEC00EDE70120EBE70120E9E70120E7E701201F
:101DFC00E5E7C04600100240FFFFFFFEFFFFFEEECE
:101E0C00FFFFFFEF8C80C11110B52A4B9B68382265
:101E1C001A4207D1274B1A68D20A072313402648C7
:101E2C00D84010BD234B9A6838231340082B3BD065
:101E3C00204B9A6838231340102B0DD01D4B9A68F9
:101E4C0038231340202B31D01A4B9A683823134077
:101E5C00182B26D00020E4E7164AD1680D3B0B4026
:101E6C00D2681209072111400131032B0FD01248FF
:101E7C00FEF756F90F4BDA68120A7F2313405843CA
:101E8C000C4BD968490F0131FEF74AF9C9E70B48E9
:101E9C00FEF746F9074BDA68120A7F2313405843C2
:101EAC00EEE7FA20C001BCE70448BAE78020000244
:101EBC00B7E7C046001002400024F40000127A007C
:101ECC0070B504000D00002800D1AAE0574B1A6829
:101EDC00072313408B4221D323689A070ED55B0747
:101EEC0005D5534A9168E023DB010B439360504ABC
:101EFC00936850490B40A1680B4393602368DB0740
:101F0C0054D56368012B20D0022B3BD0002B3FD142
:101F1C00474A126852051CD401206AE0434A1368F0
:101F2C0007218B432B43136000F024FD06003F4B2D
:101F3C001A6807231340AB42CED000F01BFD801B68
:101F4C003D4A9042F3D9032053E0394A1268920378
:101F5C0069D537498A680720824313438B6000F0A8
:101F6C0009FD0600324B9B6838221A406368DB007F
:101F7C009A421BD000F0FEFC801B2F4B9842F1D9EB
:101F8C00032036E02A4A12689201E2D4012030E0A4
:101F9C00032B05D0264AD26D9207DAD4012028E013
:101FAC00234A126E9207D4D4012022E01F4B1A68E8
:101FBC0007231340AB421DD823685B0706D51C4A88
:101FCC0093681E490B40E1680B439360FFF71CFFBD
:101FDC00174B9A68120A0F2313409B00184A9A5801
:101FEC001F231340D840174B1860174B186800F08C
:101FFC0075FC70BD0D4A136807218B432B4313608E
:10200C0000F0B8FC0600094B1A6807231340AB42DA
:10201C00D2D000F0AFFC801B074B9842F3D90320C1
:10202C00E7E70120E5E70120E3E7C0460020024096
:10203C0000100240FFF0FFFF88130000FF8FFFFF2E
:10204C00B88300080800002004000020014B186829
:10205C007047C0460800002010B5FFF7F7FF064B8D
:10206C009A68120B072313409B00044A9A581F23AB
:10207C001340D84010BDC04600100240F883000841
:10208C00F0B583B0040003689B0362D5814BDB6B16
:10209C00DB001ED47F4AD16B802040050143D16305
:1020AC00D36B03400193019B01267B4A116880236B
:1020BC005B000B43136000F05DFC0500764B1B6866
:1020CC00DB0508D400F056FC401B0228F6D903258A
:1020DC0002E00026E9E70025002D23D16D4BD96DD8
:1020EC00C02292000B001340114210D0226B9A4276
:1020FC000DD0684AD36D69490B40D06D80214902DF
:10210C000143D165D16D66480140D165D365DB07CC
:10211C0010D4002D06D15F4AD36D60490B40216B62
:10212C000B43D365012E15D15A4AD36B5D490B4035
:10213C00D3630FE000F01EFC0700564BDB6D9B07D2
:10214C00E7D400F017FCC01B574B9842F5D9032578
:10215C00DFE700252368DB0706D54E4A536D0321C4
:10216C008B4361680B43536523689B0706D5494A2B
:10217C00536D0C218B43A1680B43536523689B065D
:10218C0006D5444A536D49490B40E1680B435365EE
:10219C0023689B0506D53F4A536D45490B40A16901
:1021AC000B43536523685B0506D53A4A536D414989
:1021BC000B40E1690B43536523685B0606D5354A32
:1021CC00536D3D490B4021690B43536523685B04F8
:1021DC000BD5304A536D9B009B08216A0B4353650A
:1021EC008023DB05226A9A4239D023681B0306D56B
:1021FC00284A536D40218B43616A0B435365236816
:10220C009B020BD5234A536D2C490B40A16A0B43FF
:10221C0053658023DB03A26A9A4227D023685B02B2
:10222C000BD51C4A536D26490B40E16A0B43536591
:10223C0080235B04E26A9A421FD023681B050BD5EE
:10224C00144A536D1F490B4061690B435365626916
:10225C008023DB019A4215D0280003B0F0BD0D4A53
:10226C00D16880235B020B43D360BEE7094AD16877
:10227C0080235B040B43D360D0E7064AD1680B4341
:10228C00D360DAE7034AD16880235B020B43D36047
:10229C00E2E7C0460010024000700040FFFCFFFF68
:1022AC00FFFFFEFFFFFFFFEF10270000FFF3FFFF14
:1022BC00FFFFF3FFFFFFCFFFFFCFFFFFFFFFBFFFCE
:1022CC00FFFFFFFEFF3FFFFF7047704710B5344A1A
:1022DC0013693449194093698020C00503400B43AE
:1022EC0051693148806881435161304A10423DD078
:1022FC002D4AD468002B17D02B494A681A434A60E0
:10230C009A0F9107002A03D0254A906901439161E5
:10231C009B009A08002B01D0214B1A61224B002202
:10232C009A602000FFF7D1FF1D4B1B69DB070CD512
:10233C001B4B01221A611C4B9B68022B1FD01A4BA2
:10234C0000229A602000FFF7BFFF174B9B68002B01
:10235C000BD1134B9A6916490A409A615A6915496F
:10236C000A405A61104B00221A7010BD062202421C
:10237C0002D00D4A1469BDE701246442BAE70A4A47
:10238C005369013B5361002B03D1074B00229A6028
:10239C00D8E713001269501C186100F00DF8D1E752
:1023AC0000200240FAC30000E005002001000400F8
:1023BC00FFFFFFFEFFFFFFFC044A536904490B407B
:1023CC00C0001843034B1843506170470020024073
:1023DC0007FEFFFF02000100F0B5846CC56C656060
:1023EC00046D002C02D0446D856D65600B4F7C68CC
:1023FC001C26056C2E400125B5402C437C600468DE
:10240C0063608368102B04D0036899600368DA60FA
:10241C00F0BD03689A600368D960F9E700000240D8
:10242C0010B50400FF202368184008381421FDF76C
:10243C0077FE236C9B08064A944663449B006364B6
:10244C00044BA3641C2318401B3B8340E36410BD66
:10245C000082001080080240FF2342681340064AA5
:10246C009A1892000265054A4265013B03221A4004
:10247C0001239340836570473F820010400902405E
:10248C0070B5041E4DD00568274BE8181421FDF7D4
:10249C0047FE8000206425230222E2542B68234A45
:1024AC0013402B6021680A68A368E0680343206925
:1024BC00034360690343A0690343E0690343206A53
:1024CC00034313430B602000FFF7AAFF8023DB01BB
:1024DC00A2689A4218D0626CFF2361680B401360AB
:1024EC00A36CE26C5A606368013B032B0FD9002389
:1024FC0023656365A3650023E36325220121A154B1
:10250C00013AA354002070BD00236360E3E7200070
:10251C00FFF7A2FF236D00221A60636DA26D5A6053
:10252C00E9E70120EFE7C046F8FFFDBF0F80FFFF92
:10253C0070B504002420205C012843D02420012500
:10254C0025540130205C012804D0022024230022D1
:10255C00E25470BD2430013525540020E063256819
:10256C0028680126B04328602000FFF735FF236B55
:10257C00002B1CD0226813680E210B431360636C74
:10258C001A68D20304D51968802252000A431A60D3
:10259C00236D002B04D01968802252000A431A6064
:1025AC002268136801210B4313600020CEE72268D8
:1025BC00136804218B4313602268136806310B43A4
:1025CC001360DCE70220C4E730B5002836D02523A1
:1025DC00C35C022B06D00423C36320330022C254F5
:1025EC00012030BD026813680E218B431360426CCE
:1025FC00136813490B40136001680A6801239A435E
:10260C000A60104C62681C21056C29408B401343F6
:10261C006360836CC26C5A60036D002B06D01A6821
:10262C0007490A401A60436D826D5A6025230122C6
:10263C00C254013B0022C2540020D2E70120D0E753
:10264C00FFFEFFFF0000024070B524230122C2549C
:10265C000133C35C022B03D00423C363012070BD80
:10266C00026813680E218B43136001680A6801230A
:10267C009A430A60416C0A68124C22400A60124C60
:10268C0062681C21056C29408B4013436360836C8A
:10269C00C26C5A60036D002B06D01A6809490A40B7
:1026AC001A60436D826D5A6025230122C254013B8E
:1026BC000022C254836B002B02D098470020CEE737
:1026CC000020CCE7FFFEFFFF0000024070B5314B4D
:1026DC001968046825681C23026C134004229A4074
:1026EC00114216D06A0714D523689B0603D42368BD
:1026FC00042293432360274C63681C21026C114015
:10270C0004228A4013436360036B002B00D098476C
:10271C0070BD02229A4011421CD0AA071AD5236818
:10272C009B0606D423680A22934323602523093A87
:10273C00C254184C63681C21026C114002228A405E
:10274C001343636024230022C254C36A002BDFD0DE
:10275C009847DDE708229A401142D9D02B07D7D5EC
:10276C0023680E22934323600A4C62681C21036C7D
:10277C00194001231D008D402A436260C36325224A
:10278C00835423330022C254436B002BC0D0984790
:10279C00BEE7C04600000240C06B704710B5104A3F
:1027AC00136810490B400343136080239B0098422D
:1027BC0001D0002010BD0C4B1B685800C018400005
:1027CC000A49FDF7ADFC0130054B5B695B0503D590
:1027DC00002803D00138F7E70020EBE70320E9E7F6
:1027EC0000700040FFF9FFFF0800002040420F007E
:1027FC0070B5002811DB8308134EC0339B009D5924
:10280C0003242040C000FF2214008440A54389010A
:10281C000A4082402A439A5170BD0F230340083B63
:10282C009B0806339B00094A944663445C68032268
:10283C001040C000FC3215008540AC4389010A40B1
:10284C00824022435A60E7E700E100E000ED00E03F
:10285C00002805DB1F2318401E3B8340014A1360F0
:10286C007047C04600E100E000280ADB1F23184037
:10287C001E3B8340034980228B50BFF34F8FBFF325
:10288C006F8F704700E100E0BFF34F8F034B044A9A
:10289C00DA60BFF34F8FC046FDE7C04600ED00E0A5
:1028AC000400FA05013880235B0498420FD2094AD0
:1028BC0050600948036A1B021B0AC02109060B431E
:1028CC0003620023936007331360002070470120DC
:1028DC00FCE7C04610E000E000ED00E010B504009D
:1028EC00114B1968002901D1012010BDFA2080007C
:1028FC00FDF716FC01000D4B1868FDF711FCFFF7F6
:10290C00D1FF00280DD1032C01D90120EDE70130B6
:10291C00002221004042FFF76BFF054B1C6000209A
:10292C00E3E70120E1E7C04600000020080000209A
:10293C000400002010B5084A116880235B000B438B
:10294C0013600020FFF7CAFF041E02D001242000F0
:10295C0010BDFEF735FAFAE700200240034A13686F
:10296C00034909685B1813607047C04604060020D1
:10297C0000000020014B18687047C0460406002078
:10298C0070B50400FFF7F6FF0500631C02D0044B82
:10299C001B68E418FFF7EEFF401BA042FAD370BD92
:1029AC0000000020024B802212059A607047C0463E
:1029BC0000ED00E010B50B480B4B036000234360A7
:1029CC00E02212018260094A42610362436283621F
:1029DC00C362036302F056FB002800D110BDFDF763
:1029EC007BFFFBE708060020007C0040FFFF000097
:1029FC0000B583B002680C4B9A4201D003B000BD05
:102A0C000A4BD96B802212060A43DA63DB6BDB0FAD
:102A1C00DB070193019B002200211120FFF7E8FE48
:102A2C001120FFF715FFE9E7007C00400010024081
:102A3C0010B51948194B0360E1235B024360002376
:102A4C008360C36003610C2242618361C3610362D2
:102A5C004362836203F064FD002811D100210E480B
:102A6C0003F0EEFD00280ED100210B4803F00EFE02
:102A7C0000280BD1084803F0C3FD002809D110BD74
:102A8C00FDF72AFFEAE7FDF727FFEDE7FDF724FF47
:102A9C00F0E7FDF721FFF2E79C0600200044004020
:102AAC0030B589B004001422002103A804F0B9FF4A
:102ABC00254B22689A4201D009B030BD234BD96B0B
:102ACC00802080020143D963DA6B02400192019AA3
:102ADC00596B0122114359635B6B13400293029BA8
:102AEC000C2303930A3B0493002505950695079246
:102AFC00A02003A9C005FEF78BF91548154B036000
:102B0C00342343608560C5604C3303614561856146
:102B1C00603BC3610562FFF7B3FC002811D10C4B7D
:102B2C00A3679C62002200211C20FFF761FE1C2081
:102B3C00FFF78EFE084B1A68136810210B431360C5
:102B4C00BAE7FDF7C9FEEAE7004400400010024076
:102B5C0040060020080002409C06002070B59AB088
:102B6C00002418E03948031900221A730C3002F0C3
:102B7C00C7F9374802F000FC04E0344B1B19002263
:102B8C001A73013C002CF8DA40223249304802F02A
:102B9C0089FB59E001343F2C20DC2C4B1B191B7B8F
:102BAC000D2BDFD0082B01D07F2BF3D1274B1B191A
:102BBC0000221A73002C04DD621E244B9B18002289
:102BCC001A73234D280002F0D7FB611E4022121B02
:102BDC0092B2204BC918280002F064FB0026019623
:102BEC006022002102A804F01CFF1B221A4901A834
:102BFC0004F020FFFA25AD00154C2B00062201A98C
:102C0C00200003F0CFFB01966022002102A804F003
:102C1C0008FF1B22114901A804F00CFF2B00042211
:102C2C0001A9200003F0BEFB01966022002102A83E
:102C3C0004F0F7FE074901A804F0FCFE82B22B0059
:102C4C0001A9200003F0AEFB1AB070BD900000206B
:102C5C009C0600209C00002018840008208400089A
:102C6C0010B5074B1B68074A934200D010BDDA69B8
:102C7C00D206FBD510221A62FFF770FFF6E7C046AA
:102C8C009C06002000440040F0B5DE4657464E46F8
:102C9C004546E0B59BB0A0200121C005FEF70AFA1D
:102CAC00DC4B9B7A0D2B09D8002B00D105E20D2BA8
:102CBC0000D902E29B00D84AD3589F46FF2B00D084
:102CCC00FBE1D44B00229A7201AC6032002102A8C5
:102CDC0004F0A7FED14B220003CB03C2198811804C
:102CEC009B789370FA239B000A222100CC4803F0B6
:102CFC0059FBE2E1C74BDB7A002B02D1C54B00221A
:102D0C009A726022002102A804F08BFEC54B01933D
:102D1C00FA239B00032201A9C14803F043FB0024C2
:102D2C00092C00DDC9E1A0200121C005FEF7C2F984
:102D3C006420FFF725FE0134F2E7002301936022A3
:102D4C00002102A804F06DFE03F064FE0200B649F7
:102D5C0001A804F06FFEFA239B00092201A9B048D8
:102D6C0003F020FBAB4BDB7A002B00D0A5E1A94B89
:102D7C0000229A72A1E103F0C5FDAC4803F000FDFE
:102D8C0001AC00276022002102A804F04AFEA84BE7
:102D9C00220023CB23C21B781370FA26B600A04D59
:102DAC0033000C222100280003F0FCFA0021402003
:102DBC0003F028FE01976022002102A804F031FEE6
:102DCC0003F00AFE02009B49200004F033FE33009E
:102DDC0017222100280003F0E5FA0121402003F01E
:102DEC0011FE01976022002102A804F01AFE03F0E4
:102DFC00C3FD02009049200004F01CFE3300172292
:102E0C002100280003F0CEFA0221402003F0FAFD45
:102E1C0001976022002102A804F003FE03F0ACFD30
:102E2C0002008649200004F005FE33001B2221001D
:102E3C00280003F0B7FA0321402003F0E3FD0197CB
:102E4C006022002102A804F0ECFD03F0A9FD0200B1
:102E5C007B49200004F0EEFD82B2330021002800F3
:102E6C0003F0A0FA0421402003F0CCFD019760226E
:102E7C00002102A804F0D5FD03F092FD0200714977
:102E8C00200004F0D7FD82B233002100280003F0AB
:102E9C0089FA0621402003F0B5FD0197602200213C
:102EAC0002A804F0BEFD03F067FD02006649200095
:102EBC0004F0C0FD330017222100280003F072FA41
:102ECC000721402003F09EFD01976022002102A8FB
:102EDC0004F0A7FD03F050FD02005C49200004F053
:102EEC00A9FD330015222100280003F05BFA002411
:102EFC001CE021001031C9B2402003F083FD0023F7
:102F0C0001936022002102A804F08BFD03F034FD34
:102F1C00030022004E4901A804F08CFDFA2382B272
:102F2C009B0001A93E4803F03DFA01340E2CE0DD74
:102F3C0000241EE0072C20D821002031C9B24020EB
:102F4C0003F060FD002301936022002102A804F02D
:102F5C0068FD03F011FD030022003E4901A804F0B6
:102F6C0069FDFA239B001B2201A92D4803F01AFAD4
:102F7C000134062CDEDD002420E00021DFE7072CE5
:102F8C0020D821002831C9B2402003F03BFD00239A
:102F9C0001936022002102A804F043FD03F0ECFC35
:102FAC00030022002C4901A804F044FDFA239B00E5
:102FBC001A2201A91A4803F0F5F90134062CDEDDBA
:102FCC00002420E00021DFE7072C20D8210030313D
:102FDC00C9B2402003F016FD0023019360220021AA
:102FEC0002A804F01EFD03F0DBFC030022001B49C9
:102FFC0001A804F01FFDFA2382B29B0001A9084826
:10300C0003F0D0F90134062CDEDD002447E000216A
:10301C00DFE7C04690000020408900088C8800083B
:10302C009C0600206F6B0A00B4840008280700205F
:10303C002884000838840008548400086C84000834
:10304C0088840008A4840008BC840008D484000888
:10305C00EC840008048500082485000840850008DD
:10306C00072C31D821003831C9B2402003F0CAFCFA
:10307C00002301936022002102A804F0D2FC03F08B
:10308C008FFC030022006B4901A804F0D3FCFA2347
:10309C0082B29B0001A9684803F084F90134062C24
:1030AC00DEDD664BDB7A002B02D1644B00229A7278
:1030BC00634803F0D1FB03F0FDFB1BB03CBC904616
:1030CC009946A246AB46F0BD0021CEE700240F2C5A
:1030DC0050DC5A4B9B4625001435AD000023984616
:1030EC00584A0023594668580021FDF7D3F9564A2F
:1030FC000023FDF7AFF982468946434601936022CF
:10310C00002102A804F08DFC2200504901A804F013
:10311C0091FCFA27BF0082B2474E3B0001A9300058
:10312C0003F040F9434601936022002102A804F009
:10313C0078FC52464B46464901A804F07BFC3B0008
:10314C000F2201A9300003F02DF9434601936022B0
:10315C00002102A804F065FC5B46EA583D4901A831
:10316C0004F068FC82B23B0001A9300003F01AF9AC
:10317C000134ACE7314BDB7A002B9ED12F4B002274
:10318C009A729AE7002601966022002102A804F0A8
:10319C0048FC01F059FD3049FDF74CF802002F496D
:1031AC0001A804F047FCFA24A40082B2224D2300AB
:1031BC0001A9280003F0F6F801966022002102A86C
:1031CC0004F02FFC01F040FD2100FDF733F8210045
:1031DC00FDF716F90A00224901A804F02BFC82B273
:1031EC00230001A9280003F0DDF8144BDB7A002B37
:1031FC0000D062E7114B00229A725EE701AC00230B
:10320C0001936022002102A804F00BFC0A23238006
:10321C00F0339B0001222100074803F0C3F803F0B0
:10322C0017FD064BDB7A002B00D046E7034B002240
:10323C009A7242E75C8500089C06002090000020F2
:10324C002807002040771B00FFFFFF00788500084F
:10325C0080850008B484000840420F008C8500086B
:10326C009085000801AC00239B466022002102A837
:10327C0004F0D7FBFD4B1A6801929B88A380FA25BA
:10328C00AD00FB4E2B0005222100300003F08AF824
:10329C006022002102A804F0C4FBF64B220083CB71
:1032AC0083C21B7813702B000C222100300003F01A
:1032BC0079F85B4601936022002102A804F0B1FB6F
:1032CC000B2001F09FFCFA2292000023FDF7C2F8BC
:1032DC0002000B00E8498A46200004F0ABFB82B2E6
:1032EC002B002100300003F05DF85B460193602257
:1032FC00002102A804F095FB0B2001F083FCFA22BC
:10330C0092000023FDF7A6F8DC498946200004F062
:10331C0091FB2B000A222100300003F043F86022BD
:10332C00002102A804F07DFBD54B220083CB83C285
:10333C001B7813702B000C222100300003F032F8A4
:10334C005B4601936022002102A804F06AFB062070
:10335C0001F058FCFA2292000023FDF77BF80200E2
:10336C000B005146200004F065FB82B22B002100BB
:10337C00300003F017F85B4601936022002102A88D
:10338C0004F04FFB062001F03DFCFA2292000023D2
:10339C00FDF760F84946200004F04CFB2B000A2294
:1033AC002100300002F0FEFF6022002102A804F090
:1033BC0038FBB44B220083CB83C21B7813702B00D9
:1033CC000C222100300002F0EDFF5B4601936022DD
:1033DC00002102A804F025FB002001F013FCFA22C6
:1033EC0092000023FDF736F802000B005146200036
:1033FC0004F020FB82B22B002100300002F0D2FF3F
:10340C005B4601936022002102A804F00AFB002015
:10341C0001F0F8FBFA2292000023FDF71BF8494655
:10342C00200004F007FB2B000A222100300002F0E0
:10343C00B9FF6022002102A804F0F3FA924B22009B
:10344C0083CB83C21B7813702B000C22210030001D
:10345C0002F0A8FF5B4601936022002102A804F051
:10346C00E0FA0E2001F0CEFBFA2292000023FCF7CA
:10347C00F1FF02000B005146200004F0DBFA82B28F
:10348C002B002100300002F08DFF5B46019360227F
:10349C00002102A804F0C5FA0E2001F0B3FBFA22B9
:1034AC0092000023FCF7D6FF4946200004F0C2FA34
:1034BC002B000A222100300002F074FF6022002150
:1034CC0002A804F0AEFA714B220083CB83C21B78A6
:1034DC0013702B000C222100300002F063FF5B46BE
:1034EC0001936022002102A804F09BFA022001F053
:1034FC0089FBFA2292000023FCF7ACFF02000B00C0
:10350C005146200004F096FA82B22B0021003000C4
:10351C0002F048FF5B4601936022002102A804F0F0
:10352C0080FA022001F06EFBFA2292000023FCF7D5
:10353C0091FF4946200004F07DFA2B000A2221005D
:10354C00300002F02FFF6022002102A804F069FA7B
:10355C004F4B220083CB83C2196811601B79137106
:10356C002B0010222100300002F01CFF5B4601935F
:10357C006022002102A804F054FA0C2001F07AFB1E
:10358C00FA2292000023FCF741FF02000B00414994
:10359C008946200004F04EFA82B22B002100300044
:1035AC0002F000FF5B4601936022002102A804F0A8
:1035BC0038FA0C2001F05EFBC317C01858402900E4
:1035CC00FCF71EFF0A00344B9A461900200004F049
:1035DC0031FA2B0009222100300002F0E3FE6022B8
:1035EC00002102A804F01DFA2C4B220083CB83C2CD
:1035FC00196811601B7913712B0010222100300007
:10360C0002F0D0FE5B4601936022002102A804F078
:10361C0008FA052001F02EFBFA2292000023FCF799
:10362C00F5FE02000B004946200004F003FA82B2BA
:10363C002B002100300002F0B5FE5B4601936022A6
:10364C00002102A804F0EDF9052001F013FBC317CB
:10365C00C01858402900FCF7D3FE0A005146200040
:10366C0004F0E8F92B000922210019E09C850008E0
:10367C009C060020A4850008B4850008BC850008C1
:10368C00CC850008DC850008EC850008FC8500086A
:10369C000C8600082086000828860008348600085E
:1036AC00300002F07FFE6022002102A804F0B9F97C
:1036BC00FB4B220083CB83C2196811601B791371F9
:1036CC002B0010222100300002F06CFE5B460193AF
:1036DC006022002102A804F0A4F9012001F0CAFA2A
:1036EC00FA2292000023FCF791FE02000B004946DF
:1036FC00200004F09FF982B22B002100300002F070
:10370C0051FE5B4601936022002102A804F089F966
:10371C00012001F0AFFAC317C01858402900FCF77C
:10372C006FFE0A005146200004F084F92B00092298
:10373C002100300002F036FE6022002102A804F0C5
:10374C0070F9D84B220083CB83C2196811601B79A6
:10375C0013712B0010222100300002F023FE5B4677
:10376C0001936022002102A804F05BF90D2001F006
:10377C0081FAFA2292000023FCF748FE02000B00AB
:10378C004946200004F056F982B22B00210030008B
:10379C0002F008FE5B4601936022002102A804F0AF
:1037AC0040F90D2001F066FAC317C01858402900E3
:1037BC00FCF726FE0A005146200004F03BF92B00D2
:1037CC0009222100300002F0EDFD6022002102A848
:1037DC0004F027F9B44B220083CB83C21968116023
:1037EC001B7913712B0010222100300002F0DAFD3E
:1037FC005B4601936022002102A804F012F9032019
:10380C0001F038FAFA2292000023FCF7FFFD0200C7
:10381C000B004946200004F00DF982B22B00210068
:10382C00300002F0BFFD5B4601936022002102A82C
:10383C0004F0F7F8032001F01DFAC317C018584024
:10384C002900FCF7DDFD0A005146200004F0F2F8D7
:10385C002B0009222100300002F0A4FD602200217F
:10386C0002A804F0DEF8914B220083CB83C21B88A4
:10387C0013802B000D222100300002F093FD5B46DB
:10388C0001936022002102A804F0CBF8042001F07F
:10389C0001FAFA2292000023FCF7B8FD02000B009B
:1038AC004946200004F0C6F882B22B0021003000FB
:1038BC0002F078FD5B4601936022002102A804F01F
:1038CC00B0F8042001F0E6F9C317C01858402900DD
:1038DC00FCF796FD0A007649200004F0ABF82B00AB
:1038EC000A222100300002F05DFD201D6022002123
:1038FC0004F097F801AC6F4B220023CB23C21B883A
:10390C001380FA25AD006C4E2B000D2221003000E7
:10391C0002F048FD002301936022002102A804F06C
:10392C0080F80A2001F0B6F9FA2292000023FCF785
:10393C006DFD02000B0061498946200004F07AF805
:10394C0082B22B002100300002F02CFD5B4601936B
:10395C006022002102A804F064F80A2001F09AF910
:10396C00C317C01858402900FCF74AFD0A00504BF9
:10397C0098461900200004F05DF82B000A22210063
:10398C00300002F00FFD6022002102A804F049F87B
:10399C004B4B220083CB83C21B8813802B000D2240
:1039AC002100300002F0FEFC5B46019360220021F6
:1039BC0002A804F036F8092001F06CF9FA22920002
:1039CC000023FCF723FD02000B004946200004F005
:1039DC0031F882B22B002100300002F0E3FC5B4690
:1039EC0001936022002102A804F01BF8092001F0C9
:1039FC0051F9C317C01858402900FCF701FD0A0003
:103A0C004146200004F016F82B000A222100300059
:103A1C0002F0C8FC6022002102A804F002F8294B35
:103A2C00220083CB83C21B8813802B000D22210024
:103A3C00300002F0B7FC5B4601936022002102A823
:103A4C0003F0EFFF0F2001F025F9FA22920000237A
:103A5C00FCF7DCFC02000B004946200003F0EAFFF7
:103A6C0082B22B002100300002F09CFC5B460193DB
:103A7C006022002102A803F0D4FF0F2001F00AF904
:103A8C00C317C01858402900FCF7BAFC0A0041467D
:103A9C00200003F0CFFF2B000A222100300013E09E
:103AAC00488600085C86000870860008848600083A
:103ABC0094860008A08600089C060020208600083A
:103ACC00B0860008C086000802F06CFC1F4BDB7A45
:103ADC00002B01D0FFF7F1FA1C4B00229A72FFF772
:103AEC00ECFA1A4A00239372D37A59424B41DBB257
:103AFC00D372002B14D001AC6022002102A803F079
:103B0C0090FF134B220003CB03C21B781370FA23D4
:103B1C009B00082221000F4802F044FCFFF7CDFA6D
:103B2C0001AC6022002102A803F07BFF0A4B2200AB
:103B3C0003CB03C21B881380FA239B0009222100AC
:103B4C00044802F02FFCFFF7B8FAC04690000020A2
:103B5C00D08600089C060020DC860008FD4BDB7A32
:103B6C00002B02D1FB4B00229A7201AC002701976B
:103B7C006022002102A803F054FF0A232380FA26B6
:103B8C00B600F54D330001222100280002F00AFC9A
:103B9C0001976022002102A803F043FFED4A9046F2
:103BAC00EE4BD258EE49200003F044FF82B23300B2
:103BBC002100280002F0F6FB01976022002102A8E8
:103BCC0003F02FFF9B23DB004246D258E54920002F
:103BDC0003F030FF82B233002100280002F0E2FB38
:103BEC0001976022002102A803F01BFF9D23DB003C
:103BFC004246D258DC49200003F01CFF82B233004D
:103C0C002100280002F0CEFB01976022002102A8BF
:103C1C0003F007FFD54B4246D258D549200003F09C
:103C2C0009FF82B233002100280002F0BBFB019790
:103C3C006022002102A803F0F4FEA423DB0042461C
:103C4C00D258CC49200003F0F5FE82B2330021009B
:103C5C00280002F0A7FB01976022002102A803F0C4
:103C6C00E0FEC54B4246D258C449200003F0E2FEA8
:103C7C0082B233002100280002F094FB01976022ED
:103C8C00002102A803F0CDFEBD4B4246D258BD49DF
:103C9C00200003F0CFFE82B233002100280002F096
:103CAC0081FB01976022002102A803F0BAFEA52334
:103CBC00DB004246D258B449200003F0BBFE82B26E
:103CCC0033002100280002F06DFB6022002102A8C5
:103CDC0003F0A7FEAD4B220083CB83C233000B2233
:103CEC002100280002F05EFB0027019760220021D2
:103CFC0002A803F096FE062000F096FFA44A0023CB
:103D0C00FCF7A8FB02000B00A2498946200003F037
:103D1C0091FE82B233002100280002F043FB019790
:103D2C006022002102A803F07CFE062000F07CFF3C
:103D3C00974A0023FCF78EFB97498B46200003F033
:103D4C0079FE33000B222100280002F02BFB6022AD
:103D5C00002102A803F065FE904B220083CB83C2A6
:103D6C0033000B222100280002F01CFB00270197D6
:103D7C006022002102A803F054FE002000F054FF42
:103D8C00834A0023FCF766FB02000B004946200027
:103D9C0003F050FE82B233002100280002F002FB37
:103DAC0001976022002102A803F03BFE002000F0E6
:103DBC003BFF774A0023FCF74DFB79498A462000EC
:103DCC0003F038FE82B233002100280002F0EAFA38
:103DDC0001976022002102A803F023FE714B42469A
:103DEC00D2587149200003F025FE82B23300210025
:103DFC00280002F0D7FA01976022002102A803F0F4
:103E0C0010FE9C23DB004246D2586849200003F088
:103E1C0011FE82B233002100280002F0C3FA019790
:103E2C006022002102A803F0FCFD614B4246D258EF
:103E3C006049200003F0FEFD82B23300210028000F
:103E4C0002F0B0FA01976022002102A803F0E9FD0C
:103E5C009F23DB004246D2585749200003F0EAFD6D
:103E6C0082B233002100280002F09CFA01976022F4
:103E7C00002102A803F0D5FD504B4246D2585049C0
:103E8C00200003F0D7FD82B233002100280002F09D
:103E9C0089FA01976022002102A803F0C2FDA12338
:103EAC00DB004246D2584749200003F0C3FD82B2E2
:103EBC0033002100280002F075FA019760220021DE
:103ECC0002A803F0AEFDA223DB004246D2583E49C5
:103EDC00200003F0AFFD82B233002100280002F075
:103EEC0061FA01976022002102A803F09AFD374B7A
:103EFC004246D2583649200003F09CFD82B2330072
:103F0C002100280002F04EFA6022002102A803F0E2
:103F1C0088FD304B220083CB83C233000B2221005F
:103F2C00280002F03FFA002701976022002102A826
:103F3C0003F077FD0E2000F077FE154A0023FCF706
:103F4C0089FA02000B004946200003F073FD82B28F
:103F5C0042E0C046900000209C060020D4040000E3
:103F6C00E8860008F886000808870008E4040000CA
:103F7C001C870008348700081C05000050870008C7
:103F8C00240500006C8700088087000894870008CF
:103F9C0040420F00B4850008A0870008AC870008D9
:103FAC00B8870008DC040000C8870008D887000820
:103FBC00FC040000E8870008FC8700080C050000E2
:103FCC0014880008308800084C880008140500008C
:103FDC00608800087488000833002100280002F073
:103FEC00E1F901976022002102A803F01AFD0E20CE
:103FFC0000F01AFEF54A0023FCF72CFA5946200073
:10400C0003F018FD33000B222100280002F0CAF93E
:10401C006022002102A803F004FDED4B220083CBAB
:10402C0083C233000B222100280002F0BBF90027C9
:10403C0001976022002102A803F0F3FC022000F09B
:10404C00F3FDE24A0023FCF705FA02000B00494697
:10405C00200003F0EFFC82B233002100280002F0B4
:10406C00A1F901976022002102A803F0DAFC0220DA
:10407C0000F0DAFDD54A0023FCF7ECF9514620009C
:10408C0003F0D8FC82B233002100280002F08AF938
:10409C0001976022002102A803F0C3FC0A232380AD
:1040AC00330001222100280002F07CF9FFF705F80B
:1040BC00C84B00229A7201AC6032002102A803F0B6
:1040CC00B0FCC54B220023CB23C223CB23C203CB92
:1040DC0003C21B881380FA239B0021222100BF48B6
:1040EC0002F060F9FEF7D0FBFEF7E7FF01AC6022AF
:1040FC00002102A803F095FCB94B1A6801929A882A
:10410C00A2809B79A371FA25AD00B44E2B00062238
:10411C002100300002F046F90027019760220021AF
:10412C0002A803F07EFCAB4B9846AE4B4246D258ED
:10413C00AD4B99461900200003F07CFC82B22B0099
:10414C002100300002F02EF96022002102A803F0B9
:10415C0068FCA64B1A6801929A88A2809B79A3717D
:10416C002B0006222100300002F01CF9019760227E
:10417C00002102A803F055FCA823DB004246D258CC
:10418C004946200003F056FC82B22B00210030007F
:10419C0002F008F96022002102A803F042FC944BC3
:1041AC00220003CB03C293462B00072221003000D0
:1041BC0002F0F8F801976022002102A803F031FC0C
:1041CC0000F042FD8149FCF735F8020089492000D6
:1041DC0003F030FC82B22B002100300002F0E2F838
:1041EC0001976022002102A803F01BFC00F02CFDBB
:1041FC002900FCF71FF8C317C01858402900FCF71A
:10420C00FFF80A007C49200003F014FC2B00072265
:10421C002100300002F0C6F86022002102A803F051
:10422C0000FC764B220083CB83C22B000B22210097
:10423C00300002F0B7F8002701976022002102A895
:10424C0003F0EFFB6E4B9A46604943465246985832
:10425C00FBF7F0FF02006749200003F0EBFB82B292
:10426C002B002100300002F09DF801976022002104
:10427C0002A803F0D6FB4346524698582900FBF798
:10428C00D9FFC317C01858402900FCF7B9F80A0029
:10429C005949200003F0CEFB2B00072221003000EF
:1042AC0002F080F86022002102A803F0BAFB554B03
:1042BC00220003CB03C21A8859460A809B788B7064
:1042CC002B000A222100300002F06CF801976022CA
:1042DC00002102A803F0A5FBA723DB004246D2581D
:1042EC004946200003F0A6FB82B22B0021003000CF
:1042FC0002F058F86022002102A803F092FB424B16
:10430C00220003CB03C21A8859460A809B788B7013
:10431C002B000A222100300002F044F801976022A1
:10432C00002102A803F07DFB384B4246D258494687
:10433C00200003F07FFB82B22B002100300002F042
:10434C0031F8A923DB004246D358002B66D001ACD0
:10435C006022002102A803F064FB2D4B220003CB4A
:10436C0003C22E001D4D330007222100280002F04D
:10437C0019F86022002102A803F053FB254B220000
:10438C0083CB83C203CB03C233001322210028004A
:10439C0002F008F86022002102A803F042FB1E4B39
:1043AC001A6801921B792371330004222100280022
:1043BC0001F0F8FF074BDB7A002B01D0FEF77DFEF6
:1043CC00044B00229A72FEF778FEC04640420F0062
:1043DC008088000890000020988800089C06002027
:1043EC00BC8800084405000070880008C4880008D8
:1043FC00CC880008D488000890850008D88800086C
:10440C0034050000E4880008F08800083C05000032
:10441C00FC880008048900081889000801AC602297
:10442C00002102A803F0FDFA184B220003CB03C2B3
:10443C00FA26B600164D330007222100280001F0A1
:10444C00B1FF6022002102A803F0EBFA114B22000D
:10445C0083CB83C203CB03C21B881380330015228A
:10446C002100280001F09EFF6022002102A803F029
:10447C00D8FA094B1A6801921B7923713300042274
:10448C002100280001F08EFF94E7C0462089000827
:10449C009C060020288900081889000830B593B0C4
:1044AC002C4A4D230021D154402202A803F0B9FA22
:1044BC000F2000E00138002819DD00210F29F9DC5C
:1044CC00431E244C1B015B1824339B000201521821
:1044DC00243292001D5915518A0002AD555901958F
:1044EC001B59AC46634402AC13510131E6E7002280
:1044FC0017E01849130014339B005B58100024304C
:10450C0080004350900002AC04590194A4466344CB
:10451C0002AC03511B0910002530FF3080004350C2
:10452C0001320F2AE5DD0B499A22D2008B5C013354
:10453C00DBB28B54102B05D8074BCB5C002B07D070
:10454C00012300E001230349034A8B5413B030BD0F
:10455C000023F8E790000020D1040000F0B5DE46FF
:10456C00474680B5A5B00BAC602200210CA803F027
:10457C0058FA8F4B220023CB23C2196811609B88F9
:10458C009380FA239B00112221008A4801F00AFF34
:10459C00B020400302F034FB874802F031FB874B1C
:1045AC009E22D200944663448548032118605960CA
:1045BC000024002307939B460693984619E0012399
:1045CC005B4289E001227D499B20C0000A50019882
:1045DC004343029842439B187A4A8B50E023DB00FA
:1045EC009C466444029B0793B346019B0693039B32
:1045FC009846754B9C4200D97EE0B0235B03E018D3
:10460C0002F0FEFA6420FEF7BBF96C4D6F4A0023F2
:10461C00A86E0021FBF73EFF6D4A0023FBF71AFF43
:10462C006A4E002732003B00121A8B411000190011
:10463C000A220023FBF70EFF0190089003910491CE
:10464C0032003B00286D0021FBF724FF604A002359
:10465C00FBF700FF361A8F41300039000A22002385
:10466C00FBF7F8FE0E00029009900591594A0123C0
:10467C005B4201980399FBF7C9FE07005A37554A6C
:10468C0001235B4202983100FBF7C0FE02005A3254
:10469C0013007F435343F818C717C2197A409E275B
:1046AC00FF00EB191B68DD175B196B409A4295DA1A
:1046BC00424B9D22D2009C50BC4663441860C017EC
:1046CC005860049B434506DC00D078E70898069BAD
:1046DC00984200D873E7012338493F4A8B50059A1A
:1046EC005A4500DD6EE704D1099A07998A4200D930
:1046FC0068E70122524266E700270B9760220021EF
:10470C000CA803F08EF92D4C2E4BE25833490BA814
:10471C0003F090F9FA26B60082B2264D33000BA9AD
:10472C00280001F03FFE0B97602200210CA803F03B
:10473C0078F9294BE2582A490BA803F07BF982B28D
:10474C0033000BA9280001F02DFE0B9760220021ED
:10475C000CA803F066F99B23DB00E25821490BA857
:10476C0003F068F982B233000BA9280001F01AFE9D
:10477C000B97602200210CA803F053F99D27FF0032
:10478C00E25919490BA803F055F982B233000BA971
:10479C00280001F007FEE059B0235B039C466044FF
:1047AC0002F02EFA25B00CBC90469B46F0BDC046DC
:1047BC00788900089C060020FF7F170090000020DD
:1047CC00006298C5E4040000FEFF000040771B0067
:1047DC00FFFFFF0018FCFFFFD40400008C890008C9
:1047EC00A8890008C8890008E8890008074B084A0E
:1047FC0008499950343A9958383299500022064950
:10480C005A5004315A5005495A50704790000020B4
:10481C001C050000FF7F0000240500002C05000093
:10482C00F0B5DE46474680B5A5B00BAC6022002142
:10483C000CA803F0F6F88F4B220023CB23C2196887
:10484C0011609B889380FA239B00112221008A48D7
:10485C0001F0A8FDA020400302F0D2F9874802F035
:10486C00CFF9874BA022D20094466344854803219C
:10487C00186059600024002307939B4606939846C2
:10488C001AE001235B428AE001227D499C20C00092
:10489C000A5001984343029842439B189F22D2002E
:1048AC008B50E023DB009C466444029B0793B34689
:1048BC00019B0693039B9846734B9C4200D97EE068
:1048CC00A0235B03E01802F09BF96420FEF758F874
:1048DC006B4D8823E8586D4A00230021FBF7DAFD65
:1048EC006B4A0023FBF7B6FD684E002732003B00F5
:1048FC00121A8B41100019000A220023FBF7AAFDA3
:10490C00019008900391049132003B00A86D0021A6
:10491C00FBF7C0FD5E4A0023FBF79CFD361A8F4166
:10492C00300039000A220023FBF794FD0E000290A0
:10493C0009900591574A01235B4201980399FBF7B3
:10494C0065FD07005A37534A01235B420298310038
:10495C00FBF75CFD02005A3213007F435343F818F7
:10496C00C717C2197A40A027FF00EB191B68DD1787
:10497C005B196B409A4294DA414B474A9C50BC46B7
:10498C0063441860C0175860049B434506DC00D094
:10499C0077E70898069B984200D872E701233849BC
:1049AC003E4A8B50059A5A4500DD6DE704D1099AB1
:1049BC0007998A4200D967E70122524265E700272E
:1049CC000B97602200210CA803F02BF82C4C9F2392
:1049DC00DB00E25832490BA803F02CF8FA26B6009B
:1049EC0082B2254D33000BA9280001F0DBFC0B979C
:1049FC00602200210CA803F014F8284BE258294936
:104A0C000BA803F017F882B233000BA9280001F0B1
:104A1C00C9FC0B97602200210CA803F002F89C2320
:104A2C00DB00E25820490BA803F004F882B23300F3
:104A3C000BA9280001F0B6FC0B97602200210CA8F2
:104A4C0002F0EFFF144FE25918490BA802F0F2FFE5
:104A5C0082B233000BA9280001F0A4FCE059A0237A
:104A6C005B039C46604402F0CBF825B00CBC90462E
:104A7C009B46F0BD788900089C060020FF7F15003E
:104A8C0090000020006298C5FEFF000040771B00DC
:104A9C00FFFFFF0018FCFFFFFC040000DC0400001B
:104AAC00088A0008248A0008448A0008648A0008DE
:104ABC00084BA122D20008499950084A9958084A33
:104ACC0099500022A221C9005A5006495A5004316B
:104ADC005A50704790000020FF7F0000FC0400003B
:104AEC000C0500001405000070B5294C294BE55845
:104AFC000E2000F099F845439C23DB00E658022079
:104B0C0000F092F8704345199F22D200A158480139
:104B1C00401A80004018C000281AA223DB00E05085
:104B2C001D4AA358C318A350A123DB00E4581B490A
:104B3C00FBF780FB2018C317C018584080235B027A
:104B4C00984200DB1648124DA123DB00E850A82345
:104B5C005B039C46604402F053F8124BEC580E4B2E
:104B6C00E8581149FBF766FB201880235B0298423A
:104B7C0003DA002802DA002000E00948044A094B55
:104B8C00D050A0235B039C46604402F039F870BD02
:104B9C0090000020DC0400001405000018FCFFFF4E
:104BAC00FFFF00000C0500006079FEFF10B52530FA
:104BBC00FF308000054BC058054A00230021FBF74D
:104BCC0069FC044A0023FBF745FC10BD9000002053
:104BDC0000D2496BFFFFFF0010B52530FF3080007D
:104BEC00054BC058054A00230021FBF753FC044A2F
:104BFC000023FBF72FFC10BD9000002040771B001A
:104C0C00FFFFFF0010B5FFF7D1FF054A0023121A72
:104C1C008B4110001900034A0023FBF71BFC10BD4D
:104C2C0000D2496B1027000010B5FFF7BFFF054AF3
:104C3C000023121A8B41100019000A220023FBF7E3
:104C4C0009FC10BD00D2496B10B50720FFF7C4FF5B
:104C5C00064A0023FBF71EFC842252000023FBF7BC
:104C6C00F9FB034B9C46604410BDC0465C440000FD
:104C7C00889103FC10B5FFF7AFFF1E220023FBF752
:104C8C00E9FB034A01235B428018594110BDC04621
:104C9C00D08AFFFF10B5A0B0040080220B496846F3
:104CAC0002F0B6FE2000FFF797FFE4006C44226888
:104CBC006368801A994114220023FBF7A7FB044A6E
:104CCC0001235B428018594120B010BDB08200080E
:104CDC001802FFFF084B0022A621C9005A501031C0
:104CEC005A500649012058500C395A5004495A5010
:104CFC00044A054999507047900000204405000073
:104D0C003C05000034050000C00E1602F0B59BB047
:104D1C00FFF79AFF6B4AA623DB00D0506A4B9842F0
:104D2C0045DC684D694BEB58C01AFA218900FBF73A
:104D3C0081FA0600A723DB00E850654BEA5880187F
:104D4C00E8506449FBF776FA0400322149423000FE
:104D5C00FBF770FA2018C3171B1ADB0F5E4AAB5017
:104D6C00C317C0185840642800DD6420554CA82394
:104D7C00DB00E050594B5863574BE25C022158481A
:104D8C00FCF792F9A723DB00E358C733C722520084
:104D9C00934252D84B4A534BD358092B0CDC01335A
:104DAC0050495350A923DB000021D15002E04B4B5A
:104DBC0000225A631BB0F0BD424AA923DB00D35832
:104DCC00002B05D03F4AA923DB000121D150F1E78C
:104DDC0001AC6022002102A802F023FE424B22000B
:104DEC0003CB03C2FA26B600404D33000722210044
:104DFC00280001F0D7FA6022002102A802F011FE6F
:104E0C003B4B220083CB83C203CB03C23300132260
:104E1C002100280001F0C6FA6022002102A802F04D
:104E2C0000FE344B1A6801921B7923713300042263
:104E3C002100280001F0B6FAC4E7224B294A0021D0
:104E4C009950043A9B58012B05D01E4AA923DB002C
:104E5C000021D150AEE701AC602202A802F0E1FDC6
:104E6C00254B220003CB03C2FA26B6001F4D33009C
:104E7C0007222100280001F095FA6022002102A8E7
:104E8C0002F0CFFD1D4B220083CB83C203CB03C2A8
:104E9C001B881380330015222100280001F082FAB0
:104EAC006022002102A802F0BCFD124B1A6801928C
:104EBC001B792371330004222100280001F072FABF
:104ECC00C3E7C04690000020005A6202340500007F
:104EDC003C05000070FEFFFF44050000002C014063
:104EEC00000400504C050000FC8800089C060020C3
:104EFC0004890008188900082089000828890008FE
:104F0C0030B59BB0040001AD6022002102A802F074
:104F1C0088FD4D4B1A6801921B792B71FA239B006B
:104F2C0004222900494801F03DFA49492000FBF7C9
:104F3C00E3F8002804D1474B01229A721BB030BD14
:104F4C0045492000FBF7D8F8002803D1414B022239
:104F5C009A72F3E741492000FBF7CEF8002803D101
:104F6C003C4B03229A72E9E73D492000FBF7C4F859
:104F7C00002803D1374B04229A72DFE7394920000D
:104F8C00FBF7BAF8002809D037492000FBF7B4F832
:104F9C00002818D12F4B07229A72CFE701AC0023BF
:104FAC0001936022002102A802F03BFD0A2323801A
:104FBC00F0339B0001222100244801F0F3F9254B2A
:104FCC0006229A72BAE729492000FBF795F80028C7
:104FDC0003D1204B08229A72B0E725492000FBF739
:104FEC008BF8002803D11B4B09229A72A6E72149A2
:104FFC002000FBF781F8002803D1164B0A229A7285
:10500C009CE71D492000FBF777F8002803D1114BD2
:10501C000B229A7292E719492000FBF76DF80028D1
:10502C0003D10C4B0C229A7288E715492000FBF730
:10503C0063F8002803D1074B0D229A727EE7054BCB
:10504C00FF229A727AE7C046848A00089C060020E8
:10505C008C8A000890000020948A00089C8A000822
:10506C00A88A0008B48A0008C08A0008C88A000808
:10507C00D48A0008D88A0008DC8A0008E48A000870
:10508C00EC8A000870B5041E4CD03623C35C002B90
:10509C003DD036230222E2542568EB686068012873
:1050AC0004D080221204A16A914201D11E229343A2
:1050BC0061691D4A914201D01C4A13401C4A1A4096
:1050CC00A3680343266A3343666A3343A66A3343B1
:1050DC001343012803D080221204964203D1E268C4
:1050EC00206902431343104A914204D0A269114330
:1050FC00E26911430B43EB6023680E4A93420CD0D8
:10510C00E26A5A6236230122E254002070BD353324
:10511C000022C254FDF76CFCBBE7E26A216B0A4328
:10512C005A62EFE70120F1E7FFFF00003F1FFFFF8E
:10513C00F8F119FF007C004010B536230222C2544E
:10514C004368012B04D080231B04826A9A4219D035
:10515C0002689368102423439360026893680E3CA2
:10516C00234393600468236901221343236103687A
:10517C00996101680B69042423430B613623C254E3
:10518C00002010BD0268D368014C2340D360DFE7D8
:10519C00FFF1FFFF704770477047704770477047CB
:1051AC00704710B5040003681A68D20702D59A68D4
:1051BC00D2072AD423681A68920702D59A689207F4
:1051CC0028D423681A68520702D59A68520727D444
:1051DC0023681A68120702D59A68120726D4236826
:1051EC001A68D20602D59A68D20625D423681A68A2
:1051FC00920602D59A68920624D423681A6852063D
:10520C0002D59A68520623D410BD01225A60FFF7CA
:10521C00C1FFCFE702225A602000FFF7BCFFD0E7A6
:10522C0004225A602000FFF7B7FFD1E708225A602A
:10523C002000FFF7B2FFD2E710225A602000FFF7E0
:10524C00ADFFD3E720225A602000FFF7A8FFD4E778
:10525C0040225A602000FFF7A3FFD5E702681368CD
:10526C00C0218B4313600268936803490B40936021
:10527C0080232022C2507047FFFF7FFF0268136813
:10528C0006490B4013600268936805490B40936014
:10529C0084232022C2500023C3667047DFFEFFFF29
:1052AC00FEFFFFEF10B504008423C358202B55D10B
:1052BC00002955D0002A55D080235B018068984284
:1052CC0031D07C23E35C012B4ED07C230120E054B5
:1052DC00A165203BE2522C330021E150043B2231EA
:1052EC00E150A36F002B25D02049D962A36F204930
:1052FC001963A36F1F495963A36F00219963216838
:10530C0024311300A26DA06FFDF712F9002811D003
:10531C0088231022E2500C3B0022E254043320324A
:10532C00E25001201BE02369002BCAD1CB07C8D562
:10533C00012014E07C230022E2542268116884339B
:10534C000B4313602268936801210B43936022681E
:10535C0093683F310B439360002000E0022010BDA6
:10536C000120FCE70120FAE70220F8E73954000895
:10537C007F5400088B54000870B504008023C0587B
:10538C008422A558226891680B4201D0212807D0AD
:10539C0023689A68520636D5222D1AD0002033E0A5
:1053AC00936880218B439360606F002803D0FDF7D6
:1053BC000BF9002803D12000FFF750FFE8E7606FDE
:1053CC00FDF7EAF92028F6D188231022E2501D3887
:1053DC001AE09A6840218A439A60A06F002803D093
:1053EC00FDF7F2F8002804D12000FFF747FF00205A
:1053FC000AE0A06FFDF7D0F92028F5D18823102200
:10540C00E2501D3800E0002070BD704710B50268F6
:10541C00136840218B43136080232022C250002349
:10542C000367FFF7F2FF10BD7047000010B50300D3
:10543C00806A1B681B689B0615D45E230022C2522F
:10544C000268136809490B401360026893680331C2
:10545C00FF318B439360026893683F318B439360B9
:10546C0084232022C250FFF7DFFF10BDFFFEFFFF99
:10547C00704710B5806AFFF7FBFF10BD704770B521
:10548C00846A8023E1588422A558226892681342CA
:10549C0001D021290ED023689B685B0601D5222DF3
:1054AC000FD08822A35810210B43A3502000FFF7E4
:1054BC00E5FF70BD2A3B0022E2522000FFF7CEFE32
:1054CC00E9E75E230022E2522000FFF7D7FEE8E76F
:1054DC00F8B504000268D369156890680F210E00B6
:1054EC001E40194205D1990603D5A90629D4C1003D
:1054FC0027D4002E08D05A4906000E40084226D167
:10550C00902149000D4222D1D90202D5410200D589
:10551C008BE01A0605D52A0600D58DE0020200D5CF
:10552C008AE05A0602D56A0600D58CE01A0202D52A
:10553C006A0000D58BE0DB0102D5002D00DA8AE091
:10554C00F8BDE36E002BFBD020009847F8E7D90795
:10555C0007D5E90505D501271762882162583A431A
:10556C0062509A0709D5C20707D522680221116239
:10557C008631625804273A4362505A0709D5C2074C
:10558C0007D52268042111628431625802273A43FC
:10559C0062501A070AD5AA0601D4002E06D022683A
:1055AC000826166288216258324362508822A2581B
:1055BC00002AC5D09B0608D5AB0601D4C30004D580
:1055CC00E36E002B01D0200098478823E258236813
:1055DC009B685B0601D4130720D52000FFF74EFE15
:1055EC0023689A68520615D59A6840218A439A60B6
:1055FC00A36F002B0AD01B4A9A63A06FFDF724F807
:10560C0000289DD0A06F836B984799E72000FFF787
:10561C0035FF95E72000FFF731FF91E72000FFF7FA
:10562C002DFF88230022E2508AE780235B0313625C
:10563C00200000F0E1FF83E7236F002B00D17FE710
:10564C00200098477CE72000FFF7E0FE78E7200079
:10565C0000F0D4FF74E7200000F0CFFF70E7C046E5
:10566C00010000107556000810B5806A00235E22F8
:10567C008352083A8352FFF701FF10BD70B5040046
:10568C00016883680269134342691343C269134377
:10569C00426E1A430B68A948034013430B602268FF
:1056AC005368A7490B40E1680B435360A16922681A
:1056BC00A44B9A4201D0236A19439368A248034031
:1056CC000B4393602268D36A0F218B43616A0B43AF
:1056DC00D36223689D4A93420FD09D4A93426CD06B
:1056EC009C4A934200D1A1E09B4A934200D19FE097
:1056FC00944A934272D010260EE0984A516D0322C0
:10570C000A40022A00D181E053D8002A00D17FE060
:10571C00012A00D07EE004268A4A934200D191E00F
:10572C0080231B02E2699A4200D136E3042E01D198
:10573C0000F019FD01D900F070FC002E01D100F031
:10574C00A9FC022E01D000F065FC636A002B01D18C
:10575C0000F0E7FC012B01D100F0F1FC022B01D190
:10576C0000F0EFFC032B01D100F0EDFC042B01D178
:10577C0000F0EBFC052B01D100F0E9FC062B01D16C
:10578C0000F0E7FC072B01D100F0E5FC082B01D160
:10579C0000F0E3FC092B01D100F0E1FC0A2B01D154
:1057AC0000F0DFFC0B2B01D100F0B8FC012100F064
:1057BC00B9FC032A30D10826AEE7684A516D0C2299
:1057CC000A40082A2AD005D8002A29D0042A29D12F
:1057DC000426A1E70C2A27D108269DE75F4A526DC3
:1057EC00C02109010A40802109018A4222D007D830
:1057FC00002A21D08021C9008A421FD104268BE7C0
:10580C00C02109018A421BD1082685E7022683E7BD
:10581C00002681E710267FE710267DE702267BE72E
:10582C00002679E7102677E7102675E7002673E740
:10583C00002671E702266FE700266DE710266BE75E
:10584C00102669E7042E00D100E12CD8002E55D08B
:10585C00022E26D1636A002B00D1DEE0012B00D191
:10586C00E0E0022B00D1DFE0032B00D1DEE0042BC3
:10587C0000D1DDE0052B00D1DCE0062B00D1DBE014
:10588C00072B00D1DAE0082B00D1D9E0092B00D18D
:10589C00D8E00A2B00D1D7E00B2B00D1BAE00121C4
:1058AC00BCE00126ECE3082E26D1636A002B00D164
:1058BC0007E1012B00D10AE1022B00D109E1032BF6
:1058CC0000D108E1042B00D107E1052B00D106E142
:1058DC00062B00D105E1072B00D104E1082B00D1E8
:1058EC0003E1092B00D102E10A2B00D101E10B2BC2
:1058FC0000D1E3E00121E5E00126C1E3FCF7ACFBBC
:10590C00636A002B2CD0012B70D0022B70D0032B90
:10591C0070D0042B70D0052B70D0062B70D0072BB9
:10592C0070D0082B70D0092B70D00A2B70D00B2B99
:10593C0001D0012115E08021490012E0F369FFCF6D
:10594C00FFCFFFFF00800040FFF4FF110038014043
:10595C000044004000480040004C00400010024051
:10596C000121FAF7DDFB002801D100F063FC65682A
:10597C006B005B19834201D900F05EFC2B03834260
:10598C0001D200F05BFC042E00D175E100D9B5E02A
:10599C00002E00D1E7E0022E00D0ACE0636A002BB1
:1059AC0000D137E1012B00D148E1022B00D148E1B5
:1059BC00032B00D148E1042B00D148E1052B00D189
:1059CC0048E1062B00D148E1072B00D148E1082B18
:1059DC0000D148E1092B00D148E10A2B00D148E164
:1059EC000B2B00D112E10122002315E10221B8E7B3
:1059FC000421B6E70621B4E70821B2E70A21B0E793
:105A0C000C21AEE71021ACE72021AAE74021A8E742
:105A1C008021A6E78021490000E00121A748FAF780
:105A2C007FFBA0E70221F9E70421F7E70621F5E760
:105A3C000821F3E70A21F1E70C21EFE71021EDE74C
:105A4C002021EBE74021E9E78021E7E7FCF7DCF9CF
:105A5C00636A002B1AD0012B1CD0022B1CD0032BF9
:105A6C001CD0042B1CD0052B1CD0062B1CD0072BB8
:105A7C001CD0082B1CD0092B1CD00A2B1CD00B2B98
:105A8C0001D0012103E08021490000E00121FAF757
:105A9C0047FB68E70221FAE70421F8E70621F6E75D
:105AAC000821F4E70A21F2E70C21F0E71021EEE7D8
:105ABC002021ECE74021EAE78021E8E7802149003A
:105ACC0000E0012180200002FAF72AFB4BE70221BB
